{
  "contractName": "GravatarRegistry",
  "abi": [
    {
      "constant": true,
      "inputs": [
        {
          "name": "",
          "type": "uint256"
        }
      ],
      "name": "gravatarToOwner",
      "outputs": [
        {
          "name": "",
          "type": "address"
        }
      ],
      "payable": false,
      "stateMutability": "view",
      "type": "function"
    },
    {
      "constant": true,
      "inputs": [
        {
          "name": "",
          "type": "address"
        }
      ],
      "name": "ownerToGravatar",
      "outputs": [
        {
          "name": "",
          "type": "uint256"
        }
      ],
      "payable": false,
      "stateMutability": "view",
      "type": "function"
    },
    {
      "constant": true,
      "inputs": [
        {
          "name": "",
          "type": "uint256"
        }
      ],
      "name": "gravatars",
      "outputs": [
        {
          "name": "owner",
          "type": "address"
        },
        {
          "name": "displayName",
          "type": "string"
        },
        {
          "name": "imageUrl",
          "type": "string"
        }
      ],
      "payable": false,
      "stateMutability": "view",
      "type": "function"
    },
    {
      "anonymous": false,
      "inputs": [
        {
          "indexed": false,
          "name": "id",
          "type": "uint256"
        },
        {
          "indexed": false,
          "name": "owner",
          "type": "address"
        },
        {
          "indexed": false,
          "name": "displayName",
          "type": "string"
        },
        {
          "indexed": false,
          "name": "imageUrl",
          "type": "string"
        }
      ],
      "name": "NewGravatar",
      "type": "event"
    },
    {
      "anonymous": false,
      "inputs": [
        {
          "indexed": false,
          "name": "id",
          "type": "uint256"
        },
        {
          "indexed": false,
          "name": "owner",
          "type": "address"
        },
        {
          "indexed": false,
          "name": "displayName",
          "type": "string"
        },
        {
          "indexed": false,
          "name": "imageUrl",
          "type": "string"
        }
      ],
      "name": "UpdatedGravatar",
      "type": "event"
    },
    {
      "constant": false,
      "inputs": [
        {
          "name": "_displayName",
          "type": "string"
        },
        {
          "name": "_imageUrl",
          "type": "string"
        }
      ],
      "name": "createGravatar",
      "outputs": [],
      "payable": false,
      "stateMutability": "nonpayable",
      "type": "function"
    },
    {
      "constant": true,
      "inputs": [
        {
          "name": "owner",
          "type": "address"
        }
      ],
      "name": "getGravatar",
      "outputs": [
        {
          "name": "",
          "type": "string"
        },
        {
          "name": "",
          "type": "string"
        }
      ],
      "payable": false,
      "stateMutability": "view",
      "type": "function"
    },
    {
      "constant": false,
      "inputs": [
        {
          "name": "_displayName",
          "type": "string"
        }
      ],
      "name": "updateGravatarName",
      "outputs": [],
      "payable": false,
      "stateMutability": "nonpayable",
      "type": "function"
    },
    {
      "constant": false,
      "inputs": [
        {
          "name": "_imageUrl",
          "type": "string"
        }
      ],
      "name": "updateGravatarImage",
      "outputs": [],
      "payable": false,
      "stateMutability": "nonpayable",
      "type": "function"
    }
  ],
  "bytecode": "0x608060405234801561001057600080fd5b50611347806100206000396000f300608060405260043610610082576000357c0100000000000000000000000000000000000000000000000000000000900463ffffffff16806281d6e514610087578063359c1f72146100f057806388d0d39114610218578063a5ac363414610285578063b18588fb146102dc578063cdb3344a14610345578063d5ce24ed146103f4575b600080fd5b34801561009357600080fd5b506100ee600480360381019080803590602001908201803590602001908080601f0160208091040260200160405190810160405280939291908181526020018383808284378201915050505050509192919290505050610539565b005b3480156100fc57600080fd5b50610131600480360381019080803573ffffffffffffffffffffffffffffffffffffffff16906020019092919050505061083e565b604051808060200180602001838103835285818151815260200191508051906020019080838360005b8381101561017557808201518184015260208101905061015a565b50505050905090810190601f1680156101a25780820380516001836020036101000a031916815260200191505b50838103825284818151815260200191508051906020019080838360005b838110156101db5780820151818401526020810190506101c0565b50505050905090810190601f1680156102085780820380516001836020036101000a031916815260200191505b5094505050505060405180910390f35b34801561022457600080fd5b5061024360048036038101908080359060200190929190505050610a07565b604051808273ffffffffffffffffffffffffffffffffffffffff1673ffffffffffffffffffffffffffffffffffffffff16815260200191505060405180910390f35b34801561029157600080fd5b506102c6600480360381019080803573ffffffffffffffffffffffffffffffffffffffff169060200190929190505050610a3a565b6040518082815260200191505060405180910390f35b3480156102e857600080fd5b50610343600480360381019080803590602001908201803590602001908080601f0160208091040260200160405190810160405280939291908181526020018383808284378201915050505050509192919290505050610a52565b005b34801561035157600080fd5b506103f2600480360381019080803590602001908201803590602001908080601f0160208091040260200160405190810160405280939291908181526020018383808284378201915050505050509192919290803590602001908201803590602001908080601f0160208091040260200160405190810160405280939291908181526020018383808284378201915050505050509192919290505050610d57565b005b34801561040057600080fd5b5061041f6004803603810190808035906020019092919050505061106d565b604051808473ffffffffffffffffffffffffffffffffffffffff1673ffffffffffffffffffffffffffffffffffffffff1681526020018060200180602001838103835285818151815260200191508051906020019080838360005b8381101561049557808201518184015260208101905061047a565b50505050905090810190601f1680156104c25780820380516001836020036101000a031916815260200191505b50838103825284818151815260200191508051906020019080838360005b838110156104fb5780820151818401526020810190506104e0565b50505050905090810190601f1680156105285780820380516001836020036101000a031916815260200191505b509550505050505060405180910390f35b600080600260003373ffffffffffffffffffffffffffffffffffffffff1673ffffffffffffffffffffffffffffffffffffffff168152602001908152602001600020541415151561058957600080fd5b6000600260003373ffffffffffffffffffffffffffffffffffffffff1673ffffffffffffffffffffffffffffffffffffffff168152602001908152602001600020548154811015156105d757fe5b906000526020600020906003020160000160009054906101000a900473ffffffffffffffffffffffffffffffffffffffff1673ffffffffffffffffffffffffffffffffffffffff163373ffffffffffffffffffffffffffffffffffffffff1614151561064257600080fd5b600260003373ffffffffffffffffffffffffffffffffffffffff1673ffffffffffffffffffffffffffffffffffffffff1681526020019081526020016000205490508160008281548110151561069457fe5b906000526020600020906003020160020190805190602001906106b89291906111f6565b507f76571b7a897a1509c641587568218a290018fbdc8b9a724f17b77ff0eec22c0c81336000848154811015156106eb57fe5b906000526020600020906003020160010185604051808581526020018473ffffffffffffffffffffffffffffffffffffffff1673ffffffffffffffffffffffffffffffffffffffff16815260200180602001806020018381038352858181546001816001161561010002031660029004815260200191508054600181600116156101000203166002900480156107c25780601f10610797576101008083540402835291602001916107c2565b820191906000526020600020905b8154815290600101906020018083116107a557829003601f168201915b5050838103825284818151815260200191508051906020019080838360005b838110156107fc5780820151818401526020810190506107e1565b50505050905090810190601f1680156108295780820380516001836020036101000a031916815260200191505b50965050505050505060405180910390a15050565b6060806000600260008573ffffffffffffffffffffffffffffffffffffffff1673ffffffffffffffffffffffffffffffffffffffff16815260200190815260200160002054905060008181548110151561089457fe5b90600052602060002090600302016001016000828154811015156108b457fe5b9060005260206000209060030201600201818054600181600116156101000203166002900480601f01602080910402602001604051908101604052809291908181526020018280546001816001161561010002031660029004801561095a5780601f1061092f5761010080835404028352916020019161095a565b820191906000526020600020905b81548152906001019060200180831161093d57829003601f168201915b50505050509150808054600181600116156101000203166002900480601f0160208091040260200160405190810160405280929190818152602001828054600181600116156101000203166002900480156109f65780601f106109cb576101008083540402835291602001916109f6565b820191906000526020600020905b8154815290600101906020018083116109d957829003601f168201915b505050505090509250925050915091565b60016020528060005260406000206000915054906101000a900473ffffffffffffffffffffffffffffffffffffffff1681565b60026020528060005260406000206000915090505481565b600080600260003373ffffffffffffffffffffffffffffffffffffffff1673ffffffffffffffffffffffffffffffffffffffff1681526020019081526020016000205414151515610aa257600080fd5b6000600260003373ffffffffffffffffffffffffffffffffffffffff1673ffffffffffffffffffffffffffffffffffffffff16815260200190815260200160002054815481101515610af057fe5b906000526020600020906003020160000160009054906101000a900473ffffffffffffffffffffffffffffffffffffffff1673ffffffffffffffffffffffffffffffffffffffff163373ffffffffffffffffffffffffffffffffffffffff16141515610b5b57600080fd5b600260003373ffffffffffffffffffffffffffffffffffffffff1673ffffffffffffffffffffffffffffffffffffffff16815260200190815260200160002054905081600082815481101515610bad57fe5b90600052602060002090600302016001019080519060200190610bd19291906111f6565b507f76571b7a897a1509c641587568218a290018fbdc8b9a724f17b77ff0eec22c0c813384600085815481101515610c0557fe5b9060005260206000209060030201600201604051808581526020018473ffffffffffffffffffffffffffffffffffffffff1673ffffffffffffffffffffffffffffffffffffffff1681526020018060200180602001838103835285818151815260200191508051906020019080838360005b83811015610c92578082015181840152602081019050610c77565b50505050905090810190601f168015610cbf5780820380516001836020036101000a031916815260200191505b50838103825284818154600181600116156101000203166002900481526020019150805460018160011615610100020316600290048015610d415780601f10610d1657610100808354040283529160200191610d41565b820191906000526020600020905b815481529060010190602001808311610d2457829003601f168201915b5050965050505050505060405180910390a15050565b600080600260003373ffffffffffffffffffffffffffffffffffffffff1673ffffffffffffffffffffffffffffffffffffffff16815260200190815260200160002054141515610da657600080fd5b600160006060604051908101604052803373ffffffffffffffffffffffffffffffffffffffff168152602001868152602001858152509080600181540180825580915050906001820390600052602060002090600302016000909192909190915060008201518160000160006101000a81548173ffffffffffffffffffffffffffffffffffffffff021916908373ffffffffffffffffffffffffffffffffffffffff1602179055506020820151816001019080519060200190610e6a929190611276565b506040820151816002019080519060200190610e87929190611276565b505050039050336001600083815260200190815260200160002060006101000a81548173ffffffffffffffffffffffffffffffffffffffff021916908373ffffffffffffffffffffffffffffffffffffffff16021790555080600260003373ffffffffffffffffffffffffffffffffffffffff1673ffffffffffffffffffffffffffffffffffffffff168152602001908152602001600020819055507f9ab3aefb2ba6dc12910ac1bce4692cf5c3c0d06cff16327c64a3ef78228b130b81338585604051808581526020018473ffffffffffffffffffffffffffffffffffffffff1673ffffffffffffffffffffffffffffffffffffffff1681526020018060200180602001838103835285818151815260200191508051906020019080838360005b83811015610fc4578082015181840152602081019050610fa9565b50505050905090810190601f168015610ff15780820380516001836020036101000a031916815260200191505b50838103825284818151815260200191508051906020019080838360005b8381101561102a57808201518184015260208101905061100f565b50505050905090810190601f1680156110575780820380516001836020036101000a031916815260200191505b50965050505050505060405180910390a1505050565b60008181548110151561107c57fe5b90600052602060002090600302016000915090508060000160009054906101000a900473ffffffffffffffffffffffffffffffffffffffff1690806001018054600181600116156101000203166002900480601f01602080910402602001604051908101604052809291908181526020018280546001816001161561010002031660029004801561114e5780601f106111235761010080835404028352916020019161114e565b820191906000526020600020905b81548152906001019060200180831161113157829003601f168201915b505050505090806002018054600181600116156101000203166002900480601f0160208091040260200160405190810160405280929190818152602001828054600181600116156101000203166002900480156111ec5780601f106111c1576101008083540402835291602001916111ec565b820191906000526020600020905b8154815290600101906020018083116111cf57829003601f168201915b5050505050905083565b828054600181600116156101000203166002900490600052602060002090601f016020900481019282601f1061123757805160ff1916838001178555611265565b82800160010185558215611265579182015b82811115611264578251825591602001919060010190611249565b5b50905061127291906112f6565b5090565b828054600181600116156101000203166002900490600052602060002090601f016020900481019282601f106112b757805160ff19168380011785556112e5565b828001600101855582156112e5579182015b828111156112e45782518255916020019190600101906112c9565b5b5090506112f291906112f6565b5090565b61131891905b808211156113145760008160009055506001016112fc565b5090565b905600a165627a7a72305820d741cd48034e8bb2647fe67a2479c335c73eb3a8a81bb5a6ba3561d384f4369c0029",
  "source": "pragma solidity ^0.4.2;\n\ncontract GravatarRegistry {\n  event NewGravatar(uint id, address owner, string displayName, string imageUrl);\n  event UpdatedGravatar(uint id, address owner, string displayName, string imageUrl);\n\n  struct Gravatar {\n    address owner;\n    string displayName;\n    string imageUrl;\n  }\n\n  Gravatar[] public gravatars;\n\n  mapping (uint => address) public gravatarToOwner;\n  mapping (address => uint) public ownerToGravatar;\n\n  function createGravatar(string _displayName, string _imageUrl) public {\n    require(ownerToGravatar[msg.sender] == 0);\n    uint id = gravatars.push(Gravatar(msg.sender, _displayName, _imageUrl)) - 1;\n\n    gravatarToOwner[id] = msg.sender;\n    ownerToGravatar[msg.sender] = id;\n\n    emit NewGravatar(id, msg.sender, _displayName, _imageUrl);\n  }\n\n  function getGravatar(address owner) public view returns (string, string) {\n    uint id = ownerToGravatar[owner];\n    return (gravatars[id].displayName, gravatars[id].imageUrl);\n  }\n\n  function updateGravatarName(string _displayName) public {\n    require(ownerToGravatar[msg.sender] != 0);\n    require(msg.sender == gravatars[ownerToGravatar[msg.sender]].owner);\n\n    uint id = ownerToGravatar[msg.sender];\n\n    gravatars[id].displayName = _displayName;\n    emit UpdatedGravatar(id, msg.sender, _displayName, gravatars[id].imageUrl);\n  }\n\n  function updateGravatarImage(string _imageUrl) public {\n    require(ownerToGravatar[msg.sender] != 0);\n    require(msg.sender == gravatars[ownerToGravatar[msg.sender]].owner);\n\n    uint id = ownerToGravatar[msg.sender];\n\n    gravatars[id].imageUrl =  _imageUrl;\n    emit UpdatedGravatar(id, msg.sender, gravatars[id].displayName, _imageUrl);\n  }\n}\n",
  "sourcePath": "/Users/danigrant/Projects/gravatar/contracts/Registry.sol",
  "compiler": {
    "name": "solc",
    "version": "0.4.24+commit.e67f0147.Emscripten.clang"
  },
  "schemaVersion": "2.0.1",
  "updatedAt": "2018-08-18T17:31:45.998Z"
}